{
  "contractName": "RWD",
  "abi": [
    {
      "inputs": [],
      "stateMutability": "nonpayable",
      "type": "constructor"
    },
    {
      "inputs": [],
      "name": "InsufficientFunds",
      "type": "error"
    },
    {
      "anonymous": false,
      "inputs": [
        {
          "indexed": true,
          "internalType": "address",
          "name": "_owner",
          "type": "address"
        },
        {
          "indexed": true,
          "internalType": "address",
          "name": "_spender",
          "type": "address"
        },
        {
          "indexed": false,
          "internalType": "uint256",
          "name": "_value",
          "type": "uint256"
        }
      ],
      "name": "Approve",
      "type": "event"
    },
    {
      "anonymous": false,
      "inputs": [
        {
          "indexed": true,
          "internalType": "address",
          "name": "_from",
          "type": "address"
        },
        {
          "indexed": true,
          "internalType": "address",
          "name": "_to",
          "type": "address"
        },
        {
          "indexed": false,
          "internalType": "uint256",
          "name": "_value",
          "type": "uint256"
        }
      ],
      "name": "Transfer",
      "type": "event"
    },
    {
      "inputs": [
        {
          "internalType": "address",
          "name": "",
          "type": "address"
        },
        {
          "internalType": "address",
          "name": "",
          "type": "address"
        }
      ],
      "name": "allowances",
      "outputs": [
        {
          "internalType": "uint256",
          "name": "",
          "type": "uint256"
        }
      ],
      "stateMutability": "view",
      "type": "function",
      "constant": true
    },
    {
      "inputs": [
        {
          "internalType": "address",
          "name": "",
          "type": "address"
        }
      ],
      "name": "balanceOf",
      "outputs": [
        {
          "internalType": "uint256",
          "name": "",
          "type": "uint256"
        }
      ],
      "stateMutability": "view",
      "type": "function",
      "constant": true
    },
    {
      "inputs": [],
      "name": "decimals",
      "outputs": [
        {
          "internalType": "uint8",
          "name": "",
          "type": "uint8"
        }
      ],
      "stateMutability": "view",
      "type": "function",
      "constant": true
    },
    {
      "inputs": [],
      "name": "name",
      "outputs": [
        {
          "internalType": "string",
          "name": "",
          "type": "string"
        }
      ],
      "stateMutability": "view",
      "type": "function",
      "constant": true
    },
    {
      "inputs": [],
      "name": "symbol",
      "outputs": [
        {
          "internalType": "string",
          "name": "",
          "type": "string"
        }
      ],
      "stateMutability": "view",
      "type": "function",
      "constant": true
    },
    {
      "inputs": [],
      "name": "totalSupply",
      "outputs": [
        {
          "internalType": "uint256",
          "name": "",
          "type": "uint256"
        }
      ],
      "stateMutability": "view",
      "type": "function",
      "constant": true
    },
    {
      "inputs": [
        {
          "internalType": "address",
          "name": "_to",
          "type": "address"
        },
        {
          "internalType": "uint256",
          "name": "_value",
          "type": "uint256"
        }
      ],
      "name": "transfer",
      "outputs": [
        {
          "internalType": "bool",
          "name": "success",
          "type": "bool"
        }
      ],
      "stateMutability": "nonpayable",
      "type": "function"
    },
    {
      "inputs": [
        {
          "internalType": "address",
          "name": "_spender",
          "type": "address"
        },
        {
          "internalType": "uint256",
          "name": "_value",
          "type": "uint256"
        }
      ],
      "name": "approve",
      "outputs": [
        {
          "internalType": "bool",
          "name": "success",
          "type": "bool"
        }
      ],
      "stateMutability": "nonpayable",
      "type": "function"
    },
    {
      "inputs": [
        {
          "internalType": "address",
          "name": "_from",
          "type": "address"
        },
        {
          "internalType": "address",
          "name": "_to",
          "type": "address"
        },
        {
          "internalType": "uint256",
          "name": "_value",
          "type": "uint256"
        }
      ],
      "name": "tranferFrom",
      "outputs": [
        {
          "internalType": "bool",
          "name": "success",
          "type": "bool"
        }
      ],
      "stateMutability": "nonpayable",
      "type": "function"
    }
  ],
  "bytecode": "0x60c0604052600c60808190526b2932bbb0b932102a37b5b2b760a11b60a090815261002d9160009190610099565b50604080518082019091526003808252621495d160ea1b602090920191825261005891600191610099565b5069d3c21bcecceda10000006002556003805460ff1916601217905534801561008057600080fd5b506002543360009081526004602052604090205561016d565b8280546100a590610132565b90600052602060002090601f0160209004810192826100c7576000855561010d565b82601f106100e057805160ff191683800117855561010d565b8280016001018555821561010d579182015b8281111561010d5782518255916020019190600101906100f2565b5061011992915061011d565b5090565b5b80821115610119576000815560010161011e565b600181811c9082168061014657607f821691505b6020821081141561016757634e487b7160e01b600052602260045260246000fd5b50919050565b61065b8061017c6000396000f3fe608060405234801561001057600080fd5b50600436106100935760003560e01c806355b6ed5c1161006657806355b6ed5c1461010f57806370a082311461013a5780639264a1691461015a57806395d89b411461016d578063a9059cbb1461017557600080fd5b806306fdde0314610098578063095ea7b3146100b657806318160ddd146100d9578063313ce567146100f0575b600080fd5b6100a0610188565b6040516100ad9190610479565b60405180910390f35b6100c96100c43660046104ea565b610216565b60405190151581526020016100ad565b6100e260025481565b6040519081526020016100ad565b6003546100fd9060ff1681565b60405160ff90911681526020016100ad565b6100e261011d366004610514565b600560209081526000928352604080842090915290825290205481565b6100e2610148366004610547565b60046020526000908152604090205481565b6100c9610168366004610569565b610282565b6100a06103c2565b6100c96101833660046104ea565b6103cf565b60008054610195906105a5565b80601f01602080910402602001604051908101604052809291908181526020018280546101c1906105a5565b801561020e5780601f106101e35761010080835404028352916020019161020e565b820191906000526020600020905b8154815290600101906020018083116101f157829003601f168201915b505050505081565b3360008181526005602090815260408083206001600160a01b038716808552925280832085905551919290917f6e11fb1b7f119e3f2fa29896ef5fdf8b8a2d0d4df6fe90ba8668e7d8b2ffa25e906102719086815260200190565b60405180910390a350600192915050565b6001600160a01b0383166000908152600460205260408120548211156102a757600080fd5b6001600160a01b03841660009081526005602090815260408083203384529091529020548211156102d757600080fd5b6001600160a01b038416600090815260046020526040812080548492906102ff9084906105f6565b90915550506001600160a01b0383166000908152600460205260408120805484929061032c90849061060d565b90915550503360009081526005602090815260408083206001600160a01b0388168452909152812080548492906103649084906105f6565b92505081905550826001600160a01b0316846001600160a01b03167fddf252ad1be2c89b69c2b068fc378daa952ba7f163c4a11628f55a4df523b3ef846040516103b091815260200190565b60405180910390a35060019392505050565b60018054610195906105a5565b336000908152600460205260408120548211156103eb57600080fd5b336000908152600460205260408120805484929061040a9084906105f6565b90915550506001600160a01b0383166000908152600460205260408120805484929061043790849061060d565b90915550506040518281526001600160a01b0384169033907fddf252ad1be2c89b69c2b068fc378daa952ba7f163c4a11628f55a4df523b3ef90602001610271565b600060208083528351808285015260005b818110156104a65785810183015185820160400152820161048a565b818111156104b8576000604083870101525b50601f01601f1916929092016040019392505050565b80356001600160a01b03811681146104e557600080fd5b919050565b600080604083850312156104fd57600080fd5b610506836104ce565b946020939093013593505050565b6000806040838503121561052757600080fd5b610530836104ce565b915061053e602084016104ce565b90509250929050565b60006020828403121561055957600080fd5b610562826104ce565b9392505050565b60008060006060848603121561057e57600080fd5b610587846104ce565b9250610595602085016104ce565b9150604084013590509250925092565b600181811c908216806105b957607f821691505b602082108114156105da57634e487b7160e01b600052602260045260246000fd5b50919050565b634e487b7160e01b600052601160045260246000fd5b600082821015610608576106086105e0565b500390565b60008219821115610620576106206105e0565b50019056fea26469706673582212204d9662dbc100300af37c5a09beaca7000f86f3886d0ee5d0d22670800cc8e26a64736f6c634300080c0033",
  "immutableReferences": {},
  "source": "//SPDX-License-Identifier: UNLICENSED\npragma solidity >=0.7.0 <0.9.0;\n\ncontract RWD {\n    string public name = 'Reward Token';\n    string public symbol = 'RWD';\n    uint256 public totalSupply = 1000000000000000000000000;\n    uint8 public decimals = 18;\n\n    event Transfer(address indexed _from, address indexed _to, uint _value);\n\n    event Approve(address indexed _owner, address indexed _spender, uint _value);\n\n    error InsufficientFunds();\n\n    mapping(address => uint) public balanceOf;\n    mapping(address => mapping(address => uint)) public allowances;\n\n    constructor(){\n        balanceOf[msg.sender] = totalSupply;\n    }\n\n    function transfer(address _to, uint _value) public returns (bool success) {\n        require(balanceOf[msg.sender] >= _value);\n        balanceOf[msg.sender] -= _value;\n        balanceOf[_to] += _value;\n        emit Transfer(msg.sender, _to, _value);\n        return true;\n    }\n\n    function approve(address _spender, uint _value) public returns(bool success) {\n        allowances[msg.sender][_spender] = _value;\n        emit Approve(msg.sender, _spender, _value);\n        return true;\n    }\n\n    function tranferFrom(address _from, address _to, uint _value) public returns (bool success) {\n        require(balanceOf[_from] >= _value);\n        require(allowances[_from][msg.sender] >= _value);\n        balanceOf[_from] -= _value;\n        balanceOf[_to] += _value;\n        allowances[msg.sender][_from] -= _value;\n        emit Transfer(_from, _to, _value);\n        return true;\n    }\n}",
  "sourcePath": "/Users/Oluwamurewa/Documents/react-apps/no-downgrade/src/contracts/RWD.sol",
  "compiler": {
    "name": "solc",
    "version": "0.8.12+commit.f00d7308.Emscripten.clang"
  },
  "schemaVersion": "3.4.6",
  "updatedAt": "2022-04-15T23:23:52.555Z",
  "networkType": "ethereum",
  "devdoc": {
    "kind": "dev",
    "methods": {},
    "version": 1
  },
  "userdoc": {
    "kind": "user",
    "methods": {},
    "version": 1
  }
}